:02000002B0004C
:1040000000400B00C28A0B00000006000C000502F5
:084010000401B61400000000D9
:04401800C07A0B005F
:10401C0010F8012B11F8013B012A28BF9A42F7D066
:10402C00D01A7047034613F8012B002AFBD1181A3B
:10403C000138704709480A49884208B505D0094A31
:10404C00824202D0121A03F083FC0748074A00216F
:10405C00121A03F08BFC014808BD00BF7CE503205D
:10406C00288A0B00E8E50320E8E50320F0E70320AD
:10407C0070B5074E074C03F025FAA41BA4080025C5
:10408C00AC4200D170BD56F8043B98470135F7E7B8
:10409C00E0890B00048A0B0000F080B808B500F032
:1040AC0095F8BDE8084003F0C5B902F085B902F0F7
:1040BC0083B902F089B902F087B9000008B5034A48
:1040CC0003490C2002F0CCF8FEE700BF2D5F0B007B
:1040DC00D47A0B000078B0FA80F0400970470123C5
:1040EC00037070470EB403B503AB002153F8042BD7
:1040FC00019302F0F0FB02B05DF804EB03B07047E3
:10410C00B0B502F1080384B023F0070300AFADEBA8
:10411C00030D1446684603F01BFC00230DF8043015
:10412C0003F002F96A461A49FFF7DCFF03F0FCF8CA
:10413C0002F09DFB6946384602F001FD15493846F0
:10414C0002F023FD0446384602F0AEFC5CB103F0ED
:10415C00EBF8104902F097FB0121072003F033FA2A
:10416C001037BD46B0BD6946384602F0E8FC0A4936
:10417C00384602F00AFD0546384602F095FC0DB1B2
:10418C002146EAE703F0D0F8694602F07CFBE7E74A
:10419C00E97A0B00EC7A0B00EE7A0B0008B503F011
:1041AC00C3F84FF4165103F0B3F8074801F028FE9A
:1041BC00054800F039FE044801F0A4F8BDE80840B9
:1041CC000121072003F0EEB948E603201FB53C4857
:1041DC0001F03FFE3B4801F0A9FA00285AD03948BB
:1041EC0001F07BFC364C204601F04CFEB8B1364A4F
:1041FC003649344801F015FC204600F015FE01212B
:10420C00204600F066FC00204FF00113C4E90403C3
:10421C002D49204602F037FB204601F073F8284860
:10422C0001F03AFEB8B12A4A2849264801F0F9FBB8
:10423C00234800F0F9FD2248012100F04AFC00213E
:10424C004FF00113C4E904131D48214902F01BFB74
:10425C001B4801F057F81A4801F028FE70B31D4AAC
:10426C001A49184801F0DDFB154800F0DDFD144833
:10427C00012100F02EFC00224FF0011315491048CB
:10428C00C4E9042302F0FFFA0D4804B0BDE8104065
:10429C0001F038B8684602F01FF80099094801F09F
:1042AC0035FB684602F000FC0849064801F05DFD4C
:1042BC00094A0649034801F0B4FB93E704B010BD6A
:1042CC0048E60320E8E50320007B0B00F07A0B00A6
:1042DC00117B0B00227B0B00F67A0B0007B500213B
:1042EC00012001F0DDFF0721074801F05BFD0023F1
:1042FC0000930649064B074840F25B7201F03AF90D
:10430C0003B05DF804FB00BF48E60320337B0B00D1
:10431C000D410B00E8E503202DE9F04F85B01F4659
:10432C00BDF93880BDF83C30A8EB0209A7EB010AB7
:10433C00B9F1000FB8BFC9F10009BAF1000FB8BF4D
:10434C00CAF1000AD14583460C46154604DD3A46AF
:10435C002C4647460D469046BC4205DD2A4645464E
:10436C00904622463C4617463E1BB2B20092A8EB42
:10437C00050282EAE271A1EBE271C6F3C03202FAE5
:10438C0086F64545B4BF01224FF0FF3201917610FD
:10439C000292BC421CDCDBF800200393D145D2F81E
:1043AC001880C7BF294622462A4621465846C04790
:1043BC00019A039BB61AB1B236B2002E05DA029AF4
:1043CC001544009A56182DB236B2013424B2E0E7E7
:1043DC0005B0BDE8F08F704710B404682469A4469A
:1043EC005DF8044B604730B40468BDF80850029582
:1043FC00A46BA44630BC604730B40468BDF80850C8
:10440C000295E46BA44630BC604770B4BDF90C5007
:10441C00BDF810600468CDE90356246CA44670BC4A
:10442C0060472DE9F3411C460368BDF820805B69A9
:10443C0005461646013C34440F4624B298472B6877
:10444C00CDF8048000949C6A28463B463246394697
:10445C00A0472B68DB6A284602B0BDE8F04118473C
:10446C002DE9F3411D460368BDF820805B690446C5
:10447C0017460E469847CDE9007822686B1E3344E8
:10448C00956A20461BB23A463146A8472368DB6A38
:10449C00204602B0BDE8F04118472DE9F3471E460F
:1044AC000368BDF928905B69BDF82C800C46054665
:1044BC00174698472644B4422B680BDACDF8008097
:1044CC00D3F820A021464B463A4628460134D04723
:1044DC0024B2F0E7DB6A284602B0BDE8F047184783
:1044EC0013B502680191B0F90E100091146CB0F97B
:1044FC000C3000221146A04702B010BD2DE9F74345
:10450C0099421646BDF92870BDF82C900268804679
:10451C000D461C4613D1BE42C8BF3346CDF8289079
:10452C00C4BF3E461F467B1C946B9B1B1BB2324682
:10453C0029464046A44603B0BDE8F0436047BE425E
:10454C000AD19942C2BF0B4625461C46631CCDF8C6
:10455C002890D46B5B1BE9E753699847CDE9007948
:10456C00D8F8003040469F6A324623462946B84761
:10457C00D8F80030DB6A404603B0BDE8F04318477A
:10458C002DE9F3471D460368BDF82C805B69BDF926
:10459C00289004460F46164698472368CDF80080AD
:1045AC00D3F824A032462B4639462046D047236800
:1045BC00CDF8008009F1FF323244D3F824A03946FB
:1045CC002B46204612B2D0472368CDF80080D3F892
:1045DC0020A032464B4639462046D0476B1ED9198F
:1045EC002368CDF800801D6A20464B46324609B23E
:1045FC00A8472368DB6A204602B0BDE8F04718479D
:10460C00704701F00303B0F90A208376C907B0F9AB
:10461C00083059BF8381C2818281C38170470000F9
:10462C0030B54281C281074A074D01810024818146
:10463C004FF0FF31C0E90512446005600461047756
:10464C00046230BD010100014C800B002DE9F04FDC
:10465C0089B0CDE902120268BDF948800493BDF916
:10466C004C3052690593BDF850A00446904718F1A0
:10467C0007024FF0000648BF08F10E024FEAE20BAA
:10468C0001963546039B019ABDF904109A18059BB7
:10469C008B4212B227DD049B33444FF00009069382
:1046AC000FFA89F080451FFA89F117DD4F0705BF16
:1046BC00069BC0106D001D5C18BFEDB22B060AD511
:1046CC00029B206807921944836909B21F46204651
:1046DC005346B847079A09F10109E1E7019B0133F9
:1046EC0001935E44CEE72368DB6A204609B0BDE83F
:1046FC00F04F18472DE9F04F2DED028B91B0164677
:10470C00026ABDF874809DF878509DF87C40039146
:10471C001F46BDF8703004938346002A40F0C580D4
:10472C00B0F90C308B4240F34C81B0F90E30B342EF
:10473C0040F34781062313FB0513002B40F3418103
:10474C0006EBC403002B40F33C81037F1BB9AF2F56
:10475C0084BF0137FFB2DBF8003058465B699847DD
:10476C000522099200220592984A07EB8703D31879
:10477C000C93B3B20693059A0C9B9B5C0793ABB25C
:10478C000B93BDF80C300893039B02FB05F919FA47
:10479C0083F90FFA89F308EE103A08230A93039B66
:1047AC0002EB030A4FF000090FFA8AFA079ADBF8BA
:1047BC000030D20752D5012D1FFA89F23ED1012CBF
:1047CC003CD19B6906991F46049B0A4412B2514680
:1047DC005846B84709F101034FFA83F9079B5B0868
:1047EC0007930A9B013B13F0FF030A93DED1059F4D
:1047FC0001377BB20593099B013B13F0FF0309932F
:10480C00B9D1049B43450FD0012DDBF800303BD1CF
:10481C00012C39D10899CDF8008005311C6A32463B
:10482C00082309B25846A047DBF80030DB6A58462B
:10483C0011B0BDEC028BBDE8F04F1847069914FB84
:10484C0002F20A44049901910094DB6918EE101AE3
:10485C001F4612B22B465846B847BBE7049A42454E
:10486C00B8D0012D1FFA89F207D1012C05D19B6913
:10487C0006991F460A444346A8E70699CDF80480DA
:10488C0014FB02F20A44DFE70B9ACDF8048002EB2A
:10489C008201089AE4000A4411460094DC6932460D
:1048AC002B4609B25846A047BEE7137A51681268E6
:1048BC000B92FF1AFFB201EBC70331F837200692B7
:1048CC009A780992DA780C92012D93F9052093F9D4
:1048DC0006A00A9201D8012C57D9BDF928300893AB
:1048EC000FFA8AF30793DBF8003058465B69984758
:1048FC00B3B24FF000080E931AFA86F3C14647463E
:10490C000F930C9B9F428FD2079B0E9A3B4403FB49
:10491C000423002205920F9A1BB202EB070A08EE41
:10492C00103A0FFA8AFA4346099A0599914241D2F4
:10493C005A1CD2B25B070D9207D1069B06990B9AB3
:10494C0001339BB212F80190069319F0800F12D02C
:10495C00012DDBF80030BDF80C101AD1012C18D148
:10496C000A9A9B691144059A11441E465246049BAF
:10497C0009B25846B047059E0136F3B24FEA4909D1
:10498C0005935FFA89F90D9BCEE70023CDE9073338
:10499C00A9E70598089A024402FB0511049ACDE98F
:1049AC000042DB6918EE102A1E4609B22B46584607
:1049BC00B047E0E7099B013798445FFA88F8FFB2EB
:1049CC009FE711B0BDEC028BBDE8F08F427B0B0072
:1049DC00F0B5026A85B004460B46002A34D10A2988
:1049EC0008D1438A0282427E03EBC2036382012018
:1049FC0005B0F0BD0D29FAD0E17E007E657E71B167
:104A0C00B4F91060062111FB0061B4F90C60B142DD
:104A1C00C1BFB4F91210228201EBC5026282E28A94
:104A2C000192A28A0092CDE90205B4F91220B4F9E0
:104A3C0010102046FFF75EFE237E228A03EB430311
:104A4C0002EB43032382D2E70A2907D10023038216
:104A5C00417E927A438A01FB0233C7E70D29C6D007
:104A6C00157AA942C3D3517A9942C0D351685D1BC0
:104A7C00EDB201EBC505A87828B3E97819B3E17E4E
:104A8C00267E677E91B195F905100844B4F9101093
:104A9C0006FB0011B4F90C00814207DD00202082D6
:104AAC00B4F91210927A02FB07126282E28A019226
:104ABC00A28A0092CDE90267B4F91220B4F9101061
:104ACC002046FFF717FE2979227E238A01FB023349
:104ADC00B8E7012938BF012101764176704770474C
:104AEC0010B510210446FFF7E6FA204610BD000071
:104AFC0073B5044608462279A36832B1A3B90B49B1
:104B0C0002B0BDE8704001F0ABBE094A267B094DEE
:104B1C000949647B012E18BF2946CDE900140749C9
:104B2C00FFF7E0FA02B070BD054AEFE7AD800B006D
:104B3C00A4800B00A9800B00A5800B00C3800B0088
:104B4C009C800B0010B5044B03600446C06A08B18E
:104B5C0001F03AFC204610BD9C850B0010B50446B4
:104B6C00FFF7F0FF20465021FFF7A5FA204610BDB5
:104B7C00002910B54BDBB0F90C408C4247DD002A04
:104B8C0045DBB0F90E40944241DD847E022C1FD0EF
:104B9C00032C26D0012C04D10489D24314440A4698
:104BAC0021B2012B23D0022B32D083BB002A134617
:104BBC000489C06AB8BFD31DDB1013FB041102F0CB
:104BCC00070201239340425C22EA030242541EE096
:104BDC000489013C611A4489D243224409B212B2BD
:104BEC00DFE74489013C641A114622B2D9E7002A56
:104BFC0004891346B8BFD31DDB1013FB0411C36A21
:104C0C0002F0070001228240585C02435A5410BD46
:104C1C00002A13460489C06AB8BFD31DDB1013FBEE
:104C2C00041102F00702012303FA02F2435C5A401A
:104C3C00CCE7000070B504461D460026FFF7F0FCDB
:104C4C00114B2360666215B902F004FD0546FF2383
:104C5C0084F8333084F836309DF9103084F83730CE
:104C6C000A4BA363012384F83C30059BA3644FF6E5
:104C7C00FF72069BA286C4E90A562664A4F8446017
:104C8C00E364204670BD00BF9C850B00E8800B00E0
:104C9C00F8B50446806A0D4690B194F9301001F0D5
:104CAC0065FCA06A036800219B689847A06A0368AA
:104CBC0029469B689847A06ABDE8F84001F05DBCA6
:104CCC0094F93530014698B202F07DFC606A20B14F
:104CDC002946BDE8F84001F0E1BE0826802794F98A
:104CEC00330005EA070180B202F06DFC94F9340040
:104CFC00012180B202F067FC94F93400002180B2EB
:104D0C0002F061FC013E4FEA5707E8D1F8BD38B517
:104D1C000446806A0D4680B1A16C01F019FC002D8F
:104D2C00204614BFA721A621FFF7B2FFA06A88B1C5
:104D3C00E16CBDE8384001F00BBC606A18B104F1BD
:104D4C00380101F03DFE94F93600002180B202F0EA
:104D5C003AFCE4E794F93600012180B202F033FC0E
:104D6C00606A18B1BDE8384001F010BE38BD2DE9BD
:104D7C00F8430446806A0D468F1840B394F93010FE
:104D8C0001F0F4FBA06A036800219B689847012698
:104D9C00AF42A06A17D01F2E0CD901F0EEFB94F98C
:104DAC003010A06A01F0E2FBA06A036800219B6846
:104DBC0098470126A06A15F8011B036801369B6809
:104DCC009847F6B2E4E7BDE8F84301F0D6BB94F996
:104DDC003530014698B202F0F6FBBD4222D0606A33
:104DEC0015F8019B18B1494601F058FEF5E7082665
:104DFC004FF0800894F9330009EA080180B202F000
:104E0C00E2FB94F93400012180B202F0DCFB94F94E
:104E1C003400002180B202F0D6FB013E4FEA580864
:104E2C00E8D1DAE7BDE8F883B0F90A30DA1D48BFFB
:104E3C0003F10E02B0F90830C06AD2105A430021B7
:104E4C0002F094BD2DE9FF411E46C36A9DF82880EF
:104E5C0004460F461546C3B12046FFF7E5FFB4F9EB
:104E6C000A00B4F90810202821DC20230122203864
:104E7C00CDE9013200EBD07073237339009301EB51
:104E8C00D171894B40F34F0221E0B0F90A30D81DA3
:104E9C0048BF03F10E00B4F90830C010584301F0BC
:104EAC008BFAE0620028D7D104B0BDE8F08140381D
:104EBC00C0F3C03202FA80F240230120CDE9013068
:104ECC00522352390093794B01EBD1715210204689
:104EDC0041F34F01FFF7BAFBA06A84F83170002848
:104EEC0078D0002D74D1B4F90A30202B0CBF3C259E
:104EFC003D2584F83050B8F1000F01D001F02CFBA7
:104F0C00FEB194F9370000281BDB012180B202F0BE
:104F1C0049FB94F93700012180B202F054FB0120C7
:104F2C0001F082FA94F93700002180B202F04BFBB9
:104F3C000A2001F079FA94F93700012180B202F0CD
:104F4C0042FBA06A002874D0A16C01F001FB042282
:104F5C0057492046FFF70BFF61890139C9B220463A
:104F6C00FFF796FE534904222046FFF700FF94F901
:104F7C003130012B0CBF102114212046FFF788FE85
:104F8C0004224D492046FFF7F2FEA3684B4A934298
:104F9C005CD14B4904222046FFF7E9FED92120467B
:104FAC00FFF776FE94F93130012B0CBF2221F12151
:104FBC002046FFF76DFE204642490622FFF7D7FE3A
:104FCC00A06A002863D0E16C01F0C2FA01206BE703
:104FDC006DB28EE794F93500012180B202F0E2FA4D
:104FEC0094F93600012180B202F0DCFA94F9360013
:104FFC00012180B202F0E7FA656A3DB1B8F1000F09
:10500C003FF47EAF284601F0ADFC79E794F933000C
:10501C00012180B202F0C6FA94F93400012180B269
:10502C0002F0C0FA94F93400294680B202F0CBFAAF
:10503C0066E7606A18B104F1380101F0C1FC94F91B
:10504C003600002180B202F0BEFA80E71E4A93427D
:10505C000ED11E4903222046FFF789FE94F9313008
:10506C00012B0CBF9F21CF212046FFF711FE95E7A6
:10507C00174A934292D1174903222046FFF777FE35
:10508C0094F93130012B0CBF1021AF21ECE794F9CE
:10509C003600012180B202F096FA606A002895D0A1
:1050AC0001F074FC92E700BFB4830B00F4800B009A
:1050BC00FC850B0000860B0004860B008000200092
:1050CC000E860B0008860B008000400012860B0039
:1050DC006000100015860B0070B5002ABDF810504A
:1050EC003DDBB0F90A40944239DD0029BEBF5B18A4
:1050FC001BB20021B0F90840CE18A642C4BF631AF7
:10510C001BB2002B2BDDC06AD61014FB0611014418
:10511C0002F0070001228240012DD2B216D0022DDE
:10512C000BD0E5B9D243D2B20B44994217D011F847
:10513C00010B104001F8010CF7E70B4499420ED01B
:10514C0011F8010B504001F8010CF7E70B449942A0
:10515C0005D011F8010B104301F8010CF7E770BDF5
:10516C00F0B50029BDF8145076DBB0F90860B142F7
:10517C0072DA002ABEBF9B181BB20022B0F90A409B
:10518C00D718A742C4BFA31A1BB2002B64DDC2F30D
:10519C00C404C76A16FB041612F00702DBB207EB55
:1051AC00060423D0C2F10802D2B22D4993423CBF6F
:1051BC004FF0FF0CA2EB030E895C3CBF4CFA0EFCCB
:1051CC000CEA0101012D07D0022D2ED04DB917F894
:1051DC0006C02CEA010103E017F806C041EA0C01F5
:1051EC00B955934238D3B0F908100C449A1AD2B27C
:1051FC00072A0ED9022D1DD113462178C9432170DF
:10520C00083BB0F90810DBB2072B0C44F5D802F0C0
:10521C0007020AB3134B012D9B5C1AD0022D1CD034
:10522C00D5B9227822EA030315E017F806C081EA03
:10523C000C01D5E7291E18BF01214942C9B21346FA
:10524C002170083BB0F90860DBB2072B3444F7D867
:10525C00DDE7227813432370F0BD22785340FAE740
:10526C00EC850B00F4850B0070B41446827EBDF8FF
:10527C000C60022A0DD0032A18D0012A11D1028900
:10528C00E443144424B203960A46214670BCFFF74B
:10529C0067BF42890589E44319441444691A24B24E
:1052AC0009B20396224670BCFFF716BF4589194414
:1052BC00691A09B2E7E730B41446827EBDF808508B
:1052CC00022A0DD0032A18D0012A11D1E218048920
:1052DC00A41A24B202950A46214630BCFFF7FCBE44
:1052EC000289C9431144E2184489A41A09B224B2B0
:1052FC000295224630BCFFF733BF4289C9431144A3
:10530C0009B2E7E72DE9F8430446806A002842D049
:10531C00A16C01F01DF9474905222046FFF727FD36
:10532C00218901392046C9B2FFF7B2FCB4F90A3021
:10533C00DE1D48BF03F10E06D4E90A052389F610D9
:10534C0013FB06F615FA86F600283AD094F93010BD
:10535C0001F00CF9A06A036840219B68984701276B
:10536C00B542A06A24D01F2F0CD901F006F994F98C
:10537C003010A06A01F0FAF8A06A036840219B681B
:10538C0098470127A06A15F8011B036801379B6831
:10539C009847FFB2E4E7606A18B104F1380101F0F4
:1053AC000FFB94F93600002180B202F00CF9B2E741
:1053BC0001F0E3F8A06A78B3E16CBDE8F84301F0C2
:1053CC00C7B894F93500012180B202F0FCF8AE4266
:1053DC00F0D0606A15F8019B18B1494601F05EFBEC
:1053EC00F5E708274FF0800894F9330009EA080123
:1053FC0080B202F0E8F894F93400012180B202F096
:10540C00E2F894F93400002180B202F0DCF8013F9C
:10541C004FEA5808E8D1DAE794F93600012180B256
:10542C0002F0D1F8606A18B1BDE8F84301F0AEBAE9
:10543C00BDE8F88318860B0000210A22C0E900128F
:10544C007047002310B50446C171837188B202F015
:10545C00D3F808B10323A37100F06AFD206010BDDE
:10546C0038B50C4605461146A0B202F09BF8214611
:10547C002846BDE83840FFF7E4BF38B50446C0798C
:10548C0002F0BAF8A579003825F0080318BF0120FE
:10549C00C5F340058542A3710AD000F049FDA379FC
:1054AC00206083F00203A371A079C0F3C00038BD63
:1054BC0000F03EFD2368C01AA3889842F4D3A37968
:1054CC0003F00103AB42EFD000F032FDA379206072
:1054DC0083F0010343F00803E5E7807900F009004D
:1054EC00A0F1080358425841704791F85C3010B550
:1054FC000446016013B1886D00F0F2FC204610BD2B
:10550C0010B5036893F85C20044612B1986D00F056
:10551C00EFFC204610BDF8B51F469DF8243004461C
:10552C000D4616462BB1012380F85C30583000F044
:10553C00C7FC089B23630023636306B1A66425B1F3
:10554C00294604F1380001F00EFB069B2365079BEE
:10555C00E069A4F84C70FF2BB8BFFF23A4F85430BB
:10556C0008B1FEF7A6FDB4F85400FEF7A0FDE0610B
:10557C00F8BD00002DE9FF4104460025174698466A
:10558C000E4601F003FE0D49E56104F1380001F00F
:10559C00D6FA9DF82830A564CDE90283FF220F23AB
:1055AC00CDE90032204684F85C503B462A46314611
:1055BC00FFF7B1FF204604B0BDE8F081A4800B00DA
:1055CC0010B50446204601F03DFD0028FAD02046D7
:1055DC0001F022FBC0B210BD2DE9F047054688460C
:1055EC00FFF7EEFFEB691870EB6993F800A04FF032
:1055FC0001090AF0F00A00274C462846FFF7E0FFA5
:10560C002646EB69985500F07F0313FB09F31F4402
:10561C0001340306A4B2BFB24FEAC919EDD4631E1C
:10562C00BAF1300F88F800301ED12846FFF7C8FFBA
:10563C00EB6918552846FFF7C3FFF41C0236B6B2C7
:10564C00EB69A4B298550226B6B2BE420ED22846D9
:10565C00FFF7B6FFB5F85430A34284BFEB69185579
:10566C000134A4B20136EFE70026EDE7B5F854306B
:10567C00A3422CBF20460020BDE8F0872DE9F34162
:10568C0015461E461A4607460023964602A802F007
:10569C007F0CBEF17F0F03F10104034488BF4CF073
:1056AC00800CBEF17F0F4FEAD212E4B203F804CCA7
:1056BC001ED8C4F10403C4F10500E954224601A923
:1056CC00284405EB030802F043F9721C22444146BE
:1056DC00384601F08CFA054600F02AFC621C786210
:1056EC003244A8B2131A5842584102B0BDE8F081B6
:1056FC002346CAE70233F0B5054698B20023CE5CC8
:10570C009CB256B1B5F854C0844503F1010704D9D5
:10571C00441C16543B46A0B2F1E799B2411A0A4414
:10572C00210A02F8021C02F8013CF0BD38B504460F
:10573C0001F0AAFB002814BF0125002502D1204648
:10574C0001F0DAFC284638BD2DE9F04788B0044654
:10575C00DDF840809DF850A0894617461E46FFF79D
:10576C00E5FF0546002840F0CD80214601A8FFF753
:10577C00BCFEA16C002940F08880B4F84C20A16BD1
:10578C002B46204601F002FB00287AD0012323840B
:10579C009DF85430E269042B5B4B40F08180186813
:1057AC0099889B79ADF80C108DF80E300290C2F8E8
:1057BC0005009DF80E30BDF80C10A2F80910D3723C
:1057CC000C23B8F1000F00F081809DF848009DF883
:1057DC004420400140EAC20040F00600C0B2BAF1D9
:1057EC00000F01D100F0FD001FB1002E70D140F070
:1057FC008000E269D054226DE169581C12120A54DF
:10580C009A1CE169206D88540333E26949462046AD
:10581C00FFF770FF0346B8F1000F0BD0E269414669
:10582C002046FFF767FFE269139903462046FFF70E
:10583C0061FF034667B1E26939462046FFF75AFF1C
:10584C0003462EB1E26931462046FFF753FF03466B
:10585C00053BE2699BB210212046FFF70FFF00F0D9
:10586C0067FBC4E909004FF47A76204601F0EAFBA5
:10587C0088BB00F05DFBA36AC01A236D734398428A
:10588C00F3D9204601F038FC35E002A800F0F6FE12
:10589C00B4F84C202B4602A9204601F057FB73E7C5
:1058AC00D3F80700D3F80B10DB7B0DF1080CACE838
:1058BC0003008CF8003002AB03CBC2F80500C2F831
:1058CC0009109CF8003053730E237AE7022086E708
:1058DC0040F0C0008DE702A92046FFF77DFE0428AA
:1058EC00CFD1E369DE78002ECBD100F021FB01256E
:1058FC00A06284F82C6001A8FFF702FE284608B0CD
:10590C00BDE8F0870025F9E7B07A0B007FB50123DD
:10591C000422CDE904320023CDE90233CDE9003372
:10592C001A46FFF711FF07B05DF804FB2DE9F74F9E
:10593C00DDF83C809DF834509DF8389004468B4639
:10594C0016461F46FFF7F2FE8246002851D021462C
:10595C0001A8FFF7CAFDB4F85420E069002102F059
:10596C0005F80523E26959462046FFF7C3FE6B1E76
:10597C00012B15D8218CE369013189B22184090AE4
:10598C001954421CE369218C92B20230995480B2B2
:10599C00B8F1000F04D0238C5A1C2284A8F80030D4
:1059AC0000210B188F42E2699BB20AD9B4F854C09B
:1059BC009C4506D916F801C002F803C0013189B222
:1059CC00EFE79DF8301000290CBF30213121B9F1DF
:1059DC00000F01D041F00801022D0ED141F004015D
:1059EC00053B9BB22046FFF749FE824601A8FFF714
:1059FC0087FD504603B0BDE8F08F012D08BF41F084
:105A0C000201EDE71FB5089C0394002402949DF855
:105A1C001C4001949DF818400094FFF787FF04B0D8
:105A2C0010BD30B587B00446104605910492FEF7C0
:105A3C00F9FA00250346CDE90155DDE9042100956D
:105A4C002046FFF7DFFF07B030BD73B504460E46A6
:105A5C00FFF76CFE0546C8B1214601A8FFF745FDCE
:105A6C00E36962221A70E36902225A70E369320A0E
:105A7C009A70E369DE70E1690422204601F0B7F800
:105A8C00051E01A818BF0125FFF73AFD284602B0F4
:105A9C0070BD73B504460E46FFF748FE0546C8B107
:105AAC00214601A8FFF721FDE36972221A70E36910
:105ABC0002225A70E369320A9A70E369DE70E16976
:105ACC000422204601F093F8051E01A818BF0125F9
:105ADC00FFF716FD284602B070BD2DE9F04F2DEDF5
:105AEC00028B87B000AF0446FFF720FE8146F8B169
:105AFC00214607F11400FFF7F8FC00F019FA236DAA
:105B0C004FF47A725343A26A821A9A42064603D819
:105B1C00626A821A934221D294F82C307BB12046CF
:105B2C0001F0EAFA4FF0000907F11400FFF7E8FC66
:105B3C0048461C37BD46BDEC028BBDE8F08FE269D0
:105B4C00C0211170E2695370E1690222204601F014
:105B5C004EF8C4E90966012384F82C30204601F084
:105B6C0071FA0028E0D007F113012046FFF734FD4D
:105B7C0083460028D8D0E369A662197801F0F002B8
:105B8C00302A7FD1D4F830A0BAF1000FCCD097F8DE
:105B9C0013C06A4608EE102A03EB0C025178957874
:105BAC0005EB0125ADB205F108026946D208A1EB5F
:105BBC00C20295460CF10302FA6003EB020E0DEBE8
:105BCC0005026846C7F808D07A60D7E901218A42F5
:105BDC0006D00A461EF8018B02F8018BBA60F4E776
:105BEC000022425593F80080F96808F00608ABEBE8
:105BFC000C02033AB8F1020FA2EB0502294425D19D
:105C0C0013F801E01944023A91F801B00CF10501C6
:105C1C00294419440BEB0E2BD047E36940221A7030
:105C2C00E3691FFA8BFB83F80180E3694FEA1B22BF
:105C3C009A70E36983F803B0E1690422204600F00E
:105C4C00D6FF666218EE103A9D466DE7B8F1040F68
:105C5C0015D113F801E01944023A91F801B00CF196
:105C6C000501294419440BEB0E2BD047E369502254
:105C7C001A70E36902221FFA8BFB5A70D5E719449C
:105C8C00D047DFE7502A08D19A78D97801EB022166
:105C9C0089B22046FFF7D9FE46E7402A12D1626B43
:105CAC00002A3FF441AFBBF1040F7FF43DAF11F07C
:105CBC00060F7FF439AF9978D87800EB012080B2C9
:105CCC00904731E7602A08D19A78D97801EB022104
:105CDC0089B22046FFF7DDFE26E7702ADFD0902A36
:105CEC003FF422AFC02A0AD1D0221A70E3690022F5
:105CFC005A70E1690222204600F079FF14E7D02A9D
:105D0C0004BF002384F82C300EE7F7B504460F4689
:105D1C001646FFF70BFD054610B3214601A8FFF709
:105D2C00E4FB238C01339BB2EBB12384238CE2691B
:105D3C001B0A5371E369228C9A71E2690723394675
:105D4C002046FFF7D7FCE3691E54043883B2E2699E
:105D5C0082212046FFF792FC054601A8FFF7D0FBF5
:105D6C00284603B0F0BD0123DFE70022FFF7CDBFCB
:105D7C0010B5064B03600446006D08B100F0A8F89E
:105D8C002046FEF7DFFE204610BD00BF28860B0024
:105D9C0010B50446FFF7ECFF20467021FEF78BF997
:105DAC00204610BD30B585B004460D4601F052FCBE
:105DBC00104A1149CDE901214FF0FF3280210346F1
:105DCC00009220462022FEF735FF0C4B2360002367
:105DDC00C4E9143504F15800FFF72EFB04F1600000
:105DEC00FFF72AFB04F16800FFF726FB204605B0FD
:105DFC0030BD00BF801A0600A086010028860B006B
:105E0C0013B50446503000F05BF8636DD90705D527
:105E1C000222042104F15800FFF722FB636D9A075C
:105E2C0005D50022032104F16000FFF719FB636D17
:105E3C005B0705D50222114604F16800FFF710FB41
:105E4C00012300933C2202212046FEF7FBFF02B007
:105E5C0010BD10B5436DD907044602D55830FFF775
:105E6C000CFB636D9A0703D504F16000FFF705FB8B
:105E7C00636D5B0705D504F16800BDE81040FFF7C2
:105E8C00FCBA10BD436D024613F0010003D002F1C1
:105E9C005800FFF722BB7047436D024613F0020017
:105EAC0003D002F16000FFF718BB7047436D024648
:105EBC0013F0040003D002F16800FFF70EBB70472B
:105ECC0008B5024B1B681B6B019308BD480203000D
:105EDC0008B5024B1B685B6B019308BD48020300BD
:105EEC0008B5024B1B689B6B019308BD480203006D
:105EFC0008B5024B1B681B6C019308BD48020300DC
:105F0C0008B5024B1B685B6C019308BD480203008B
:105F1C0008B5024B1B685B68019308BD18020300AF
:105F2C0008B5024B1B68DB68019308BD180203001F
:105F3C0008B5024B1B685B69019308BD180203008E
:105F4C0008B5024B1B689B68019308BD2C0203002B
:105F5C0008B5024B1B68DB68019308BD2C020300DB
:105F6C0008B5024B1B681B69019308BD2C0203008A
:105F7C0008B5024B1B685B69019308BD2C0203003A
:105F8C0008B5024B1B681B68019308BD280203006F
:105F9C0008B5024B1B68DB68019308BD280203009F
:105FAC0008B5024B1B689B69019308BD28020300CE
:105FBC0008B5024B1B68DB69019308BD280203007E
:105FCC0008B5024B1B681B6A019308BD280203002D
:105FDC0008B5024B1B685B6A019308BD28020300DD
:105FEC0008B5024B1B689B6A019308BD280203008D
:105FFC0008B5024B1B68DB6A019308BD280203003D
:10600C0008B5024B1B681B6B019308BD28020300EB
:10601C0008B5024B1B685B6B019308BD280203009B
:10602C0008B5024B1B681B6C019308BD28020300CA
:10603C0008B5024B1B685B69019308BD6C02030039
:10604C0008B5024B1B685B69019308BD6402030031
:10605C0008B5024B1B681B6A019308BD6402030060
:10606C0008B5024B1B689B6A019308BD64020300D0
:10607C0008B5024B1B689B68019308BD68020300BE
:10608C0008B5024B1B68DB68019308BD680203006E
:10609C0008B5024B1B689B69019308BD38020300CD
:1060AC0008B5024B1B68DB69019308BD380203007D
:1060BC0008B5024B1B681B6A019308BD380203002C
:1060CC0008B5024B1B689B6A019308BD380203009C
:1060DC0008B5024B1B681B6B019308BD380203000B
:1060EC0008B5024B1B689B6B019308BD380203007B
:1060FC0008B5024B1B681B68019308BD30020300F6
:10610C0008B5024B1B685B69019308BD30020300A4
:10611C0008B5024B1B68DB69019308BD3002030014
:10612C0008B5024B1B681B6A019308BD30020300C3
:10613C0008B5024B1B685B6A019308BD3002030073
:10614C0008B5024B1B68DB6B019308BD30020300E2
:10615C0008B5024B1B681B6C019308BD3002030091
:10616C0008B5024B1B685B6C019308BD3002030041
:10617C0008B5024B1B68DB68019308BD3C020300A9
:10618C0008B5024B1B681B69019308BD3C02030058
:10619C0008B5024B1B685B69019308BD3C02030008
:1061AC0008B5024B1B689B69019308BD3C020300B8
:1061BC0008B5024B1B68DB69019308BD3C02030068
:1061CC0008B5024B1B681B6A019308BD3C02030017
:1061DC0008B5024B1B689B6A019308BD3C02030087
:1061EC0008B5024B1B681B6C019308BD3C020300F5
:1061FC0008B5024B1B681B68019308BD4C020300D9
:10620C0008B5024B1B685B68019308BD4C02030088
:10621C0008B5024B1B681B69019308BD4C020300B7
:10622C0008B5024B1B685B69019308BD4C02030067
:10623C0008B5024B1B689B69019308BD4C02030017
:10624C0008B5024B1B68DB69019308BD4C020300C7
:10625C0008B5024B1B681B6A019308BD4C02030076
:10626C0008B5024B1B685B6B019308BD6002030011
:10627C0008B5024B1B681B6D019308BD600203003F
:10628C0008B5024B1B685B68019308BD2002030034
:10629C0008B5024B1B685B69019308BD2002030023
:1062AC0008B5024B1B68DB6A019308BD2002030092
:1062BC0008B5034B1B68D3F88830019308BD000068
:1062CC002002030008B5034B1B68D3F894300193EC
:1062DC0008BD00002002030008B5024B1B68DB69F7
:1062EC00019308BD4402030008B5024B1B68DB6B2D
:1062FC00019308BD4402030008B5024B1B685B68A0
:10630C00019308BD4002030008B5024B1B689B6853
:10631C00019308BD4002030008B5024B1B68DB6803
:10632C00019308BD4002030008B5024B1B681B69B2
:10633C00019308BD4002030008B5024B1B685B6962
:10634C00019308BD4002030008B5024B1B689B6912
:10635C00019308BD4002030008B5024B1B68DB69C2
:10636C00019308BD4002030008B5024B1B681B6A71
:10637C00019308BD4002030008B5024B1B681B6B60
:10638C00019308BD4002030008B5024B1B685B6B10
:10639C00019308BD4002030008B5024B1B681B6C3F
:1063AC00019308BD4002030008B5024B1B685B6CEF
:1063BC00019308BD4002030008B5024B1B681B6823
:1063CC00019308BD1C02030008B5024B1B685B68F7
:1063DC00019308BD1C02030008B5024B1B689B68A7
:1063EC00019308BD1C02030008B5024B1B685B6AD5
:1063FC00019308BD1C02030008B5024B1B68DB6B44
:10640C00019308BD1C02030008B5024B1B681B6CF2
:10641C00019308BD1C02030008B5024B1B685B6CA2
:10642C00019308BD1C0203000021FFF731BF0000DF
:10643C00024800230360FFF763BD00BFC4E60320DE
:10644C00002240681146FFF78FBF002240681146BA
:10645C00FFF79ABF40680022FFF78EBF406800220A
:10646C0081F00101FFF778BF002340681A461946F6
:10647C00FFF76ABF002340681A461946FFF75CBF56
:10648C00002240681146FFF74FBF002240681146BA
:10649C00FFF73ABF406800220221FFF73DBF0023FF
:1064AC0040681A46FFF728BF024B03225A60024A83
:1064BC001A607047C8E6032088860B007047F8B551
:1064CC00064615460C468F18BC4206D0336814F8A5
:1064DC00011B9B6830469847F6E72846F8BD007CC0
:1064EC000022FFF76DBD007C0021FFF771BD007C21
:1064FC000021FFF775BD007C0021FFF779BD007C02
:10650C000021FFF77DBD10B514210446FDF7D3FD26
:10651C00204610BD38B5044615464FF47A73002258
:10652C00C4E90123094B2174084623602946FFF76F
:10653C0077FDBF3008D16B69DB0705D56868FFF7BD
:10654C0043FFE868FFF740FF204638BDC4860B00C8
:10655C00007C0022FFF714BD0023007C1A4619466C
:10656C00FFF716BD007C0022FFF71ABDC9B2FFF77A
:10657C00F9BF007C0022FFF71BBD0121FFF7F9BF1B
:10658C00704710B518210446FDF795FD204610BD47
:10659C00F0B5037D062B8DB00E4600F104074FF0CD
:1065AC00000412D000F1080515F8011D0A2230462E
:1065BC0000F073F9AF42044419D0002CF4D02E2112
:1065CC00304600F051F90444EEE72F236A46394671
:1065DC000A208DF80040FFF733FD6846FDF722FDD9
:1065EC0033680246DB6869463046984704462046C5
:1065FC000DB0F0BD10B5054B0446112240F8043B1C
:10660C00002101F0B3F9204610BD00BFEC860B0051
:10661C000346074A10B543F8042B01F1100251F858
:10662C00044B43F8044B9142F9D10A781A7010BD0F
:10663C00EC860B00037D042B04D14068003818BF96
:10664C0001207047062B07D143683BB983682BB9EF
:10665C00C3681BB90069F1E700207047012070473F
:10666C0010B59DF8084044EA032343EA024242EA8B
:10667C00016104234160037510BD000007B5064B92
:10668C000360CB7800938B784A780978FFF7E8FFA2
:10669C0003B05DF804FB00BFEC860B00014B024A13
:1066AC001A607047D0E60320F8860B000023406880
:1066BC001A46FFF721BE406800220221FFF72CBECC
:1066CC00002240681146FFF71FBE002240681146A9
:1066DC00FFF72ABE002340681A461946FFF72CBE66
:1066EC00002340681A461946FFF72EBE4068002169
:1066FC00FFF752BE40680021FFF756BE40680022EB
:10670C0081F00101FFF728BE40680022FFF734BE7C
:10671C00002240681146FFF737BE00224068114640
:10672C00FFF722BE2DE9F04395B014460D460746FF
:10673C00FFF760FF00211C220DA8009101F016F953
:10674C0040230C9320466B460CAA0021FFF798FCC3
:10675C00044600284BD1024601216868FFF7E4FD8E
:10676C000221804622466868FFF7DEFD009E8146C6
:10677C002146002E3BD0002939D17368022B03D05F
:10678C000A2B11D0F669F4E7B8F1000FFAD0716951
:10679C0006A8043107ADFFF771FF0FCD3C1D0FC4E8
:1067AC002B6823704146EDE7B9F1000FEAD074690C
:1067BC00102201A801F0DAF806238DF8143001AD8F
:1067CC0004F108031834186859682A4603C20833C0
:1067DC00A3421546F7D101A906A807ADFFF718FF8C
:1067EC000FCD3C1D0FC42B6823704946CAE7009897
:1067FC00FFF73EFC384615B0BDE8F083024B034A68
:10680C001A6000225A607047D4E6032004870B00FC
:10681C00F8B506460D468F180024BD420CD03368DF
:10682C0015F8011B9B6830469847031E01DB1C447E
:10683C00F3E7002C08BF1C462046F8BD13B50446F0
:10684C00084659B10191FDF7EDFB23680199DB680E
:10685C000246204602B0BDE81040184702B010BDF9
:10686C0008B5FFF7EBFF08BD03689B68184738B500
:10687C000D210546FFF7F8FF0A2104462846FFF7CD
:10688C00F3FF204438BD38B50546FFF7D7FF044663
:10689C002846FFF7ECFF204438BD30B58BB0002301
:1068AC00012A8DF8243098BF0A2209AC0D46B1FBA1
:1068BC00F2F101FB125303F0FF03092B94BF3033A9
:1068CC003733DBB2AA4204F8013DEFD92146FFF77A
:1068DC00B5FF0BB030BD2DE9F04186B000AF0546D9
:1068EC000E46381D142114463B60FFF77DFD13281E
:1068FC000ED8391D2846FFF7A1FF04461EB12846C5
:10690C00FFF7B5FF044420461837BD46BDE8F081BB
:10691C0000F1080323F00703E846ADEB030D224614
:10692C00411C3B686846FFF75FFD69462846FFF748
:10693C0085FF0446C546E1E7014B00229A6070478B
:10694C00DCE603200021FFF70BBC0021FFF700BCA5
:10695C0010B5044608462170FFF7DAFB002363608C
:10696C00204610BD13B504460078FFF7EEFF58B96A
:10697C00207801904FF6FF71FFF7BAFB019802B037
:10698C00BDE81040FFF7DEBF02B010BD0078FFF786
:10699C00D9BF0000400830B5186000241868884240
:1069AC00E5B206D90134082C02D040081860F5E78E
:1069BC000725024B5B5D137030BD00BF38870B00A1
:1069CC002DE9F04306468FB000780C46FFF7BDFF6B
:1069DC0000281BDB35781422002109A800F0C6FF23
:1069EC000B23002209A92846ADF82430FFF7A0FBA1
:1069FC009DF82D3013B19DF82C5055B10027B94698
:106A0C00B846012523795DB1C3B100200FB0BDE8B4
:106A1C00F083DDF830809DF834909DF83570F1E707
:106A2C00002B35D1A368434508D18DF820908DF803
:106A3C002170BDF82020A3899A42E6D00023A168DA
:106A4C008DF80F300A9804AB0DF10F02FFF7A2FF7F
:106A5C00217985B989B9A36843450ED38DF8209067
:106A6C008DF82170BDF82020A3899A4205D1049B92
:106A7C00434502D1C9E70029F9D100230193637B77
:106A8C0000939DF80F20237B3078FFF759FBBCE770
:106A9C00CDE900552B462A460121F5E708B50078CB
:106AAC00FFF72EFBC0B208BD10B504460068FFF717
:106ABC008BFC204610BD10B50446006808B1FFF7EA
:106ACC0083FC0023C4E90133236010BD38B50446B0
:106ADC000D4600680131FFF77FFC10B1C4E90005D9
:106AEC00012038BD10B50368044623B143688B42BE
:106AFC0001D3012010BD2046FFF7E8FF0028F9D094
:106B0C00A368002BF5D122681370F2E737B50D4658
:106B1C00114601920446FFF7E5FF019A28B9204679
:106B2C00FFF7C9FF204603B030BDA260294620689C
:106B3C0000F00EFF2268A3680021D154F2E7002375
:106B4C0013B5C0E9003304468360037341B10846B2
:106B5C000191FDF767FA019902462046FFF7D6FF2F
:106B6C00204602B010BD13B5044659B10846019138
:106B7C00FDF758FA019902462046FFF7C7FF204659
:106B8C0002B010BDFFF797FFF9E708B582683AB974
:106B9C0021B10878B0FA80F0400900E0012008BD6E
:106BAC00006809B90078F5E7FDF732FAF2E7000062
:106BBC00054B02221A60054B054A9A600020C3E976
:106BCC000000FFF75DBB00BFF8E60320ECE60320F6
:106BDC000000FFFF13B503688DF80710DC6B012272
:106BEC004FF0FF330DF10701A04702B010BD10B4F8
:106BFC000368DC6B4FF0FF33A4465DF8044B604731
:106C0C0013B5134602688DF80710D46B0DF107010C
:106C1C000122A04702B010BD10B54369B3F886201D
:106C2C00B3F884309A42044608D06369B3F88420E0
:106C3C00511CA3F884101344187910BD03681B6908
:106C4C0098470028F1D14FF0FF30F6E770474369C1
:106C5C001868C043C00F704770470000064B99423C
:106C6C0010B500F10C0405D0084600F059FD0028C1
:106C7C0008BF0024204610BD78860B0010B5AC214F
:106C8C000446FDF718FA204610BDAC21FDF713BAE7
:106C9C002DE9F0414FF0000886B01C46C0F8048086
:106CAC0005460E4617464146102202A800F05EFE2D
:106CBC00631C09D04FF47A73B4FBF3F203FB124458
:106CCC00CDE902285C4304946869102300930068A2
:106CDC0002AB41F2050240F6FF71FFF7D9F900282B
:106CEC0007DAFFF789FB03686B60002006B0BDE88C
:106CFC00F0816869002300683A463146FFF7E8F9ED
:106D0C00031EEEDB1846F1E738B584690A4B0360C5
:106D1C0005467CB16368013B63605BB92368204620
:106D2C009B689847A368013BA3601BB92368204666
:106D3C00DB689847284638BD7C870B0010B50446A5
:106D4C00FFF7E2FF20461C21FDF7B5F9204610BDE8
:106D5C0030B587B0044601AD6846FFF78FFC0FCD08
:106D6C0004340FC42B68237007B030BD70B54D6967
:106D7C00054B04468C3544F8043B06460FCD0FC436
:106D8C002B682370304670BDEC860B002DE9F04368
:106D9C009846036893B00D460024DB6A06461746F6
:106DAC00984728466B46224621460094FFF768F91F
:106DBC000546002863D1009B002B4BD05B69002B50
:106DCC0048D006A8FFF716FC009B5C696378022B81
:106DDC0004D1211D06A8FFF7BBFF26E00A2B24D106
:106DEC001122294601A800F0C1FDA368002B38D060
:106DFC0004F108030DF1040C183418685968624644
:106E0C0003C20833A3429446F7D1062301A90CA868
:106E1C008DF81430FFF7FCFB0DF1340CBCE80F00BF
:106E2C0007AC0FC4DCF80030237006A8FFF702FC97
:106E3C0080B1336807ADD3F82090124B0C930FCD73
:106E4C000DAC0FC42B6823703A4643460CA9304650
:106E5C00C84705460098FFF70BF9284613B0BDE864
:106E6C00F083E368002BC3D14FF6FF70D4F8109079
:106E7C00FFF7EEF88145BBD104F11401AAE72546D2
:106E8C00E8E700BFEC860B0038B543691A68002AA6
:106E9C00054610DAB3F88620B3F884309A420AD14A
:106EAC0003681B699847044628B92B682846DB6A97
:106EBC009847204638BD0120FCE710B54369B3F86C
:106ECC008620B3F884309A42044605D06369B3F83F
:106EDC0084201344187910BD03681B699847002857
:106EEC00F4D14FF0FF30F6E7F8B543691746B3F825
:106EFC008620B3F884309A4205460E4616D069694E
:106F0C00B1F88430B1F88640E41ABC4228BF3C4644
:106F1C00043322461944304600F01AFD6A69B2F86F
:106F2C0084302344A2F884302046F8BD03681B69E2
:106F3C0098470028E3D14FF0FF34F5E7426900236E
:106F4C00A2F884304269A2F8863070472DE9F041EE
:106F5C001F4603680C46DB6A8AB0054616469847FE
:106F6C00237DD5F81480042B0CBF02200A200622A6
:106F7C000121FFF7B5F8C8F800006B691B68002BFE
:106F8C0008DA2B682846DB6A0024984720460AB0AA
:106F9C00BDE8F0812846FFF7D1FFB7B1002303A964
:106FAC00F8B20393ADF81030FFF742F80028E8D19F
:106FBC00686906230093006803AB41F20B0240F6AC
:106FCC00FF71FFF765F80028DBD11C22002103A814
:106FDC0000F0CCFC237D042B1DD14FF407733046FD
:106FEC00ADF80C30FFF73CF8ADF80E006068FFF719
:106FFC002FF804906B691C22186803A9FFF758F846
:10700C000028BED104340FCC6D698C350FC52368B4
:10701C002B700124BAE740F61C233046ADF80C3037
:10702C00FFF71EF805AEADF80E00231D04F1140792
:10703C0018685968324603C20833BB421646F7D16A
:10704C00D8E7000030B54269B2F886308BB0044600
:10705C002BB1B2F884209A4201D1FFF76FFF61691E
:10706C000868002818DBB1F886507F2D14D804313D
:10707C000823C5F180022944FFF722F8002813DD0C
:10708C006369B3F886200AB9A3F884206369B3F85E
:10709C0086201044A3F886006369B3F88600B3F821
:1070AC008430C01A0BB030BDFFF7A6F903680B2B68
:1070BC00F2D0FFF7A1F903680B2BEDD020230025AC
:1070CC00CDE90235FFF798F903680193084B09499C
:1070DC00009302AA2B463220FFF7CAF8636918689E
:1070EC00FEF7DEFF63694FF0FF321A60D4E700BF92
:1070FC0047870B0040870B0010B54369044618689E
:10710C00002801DBFEF7CCFF63694FF0FF321A60F9
:10711C006069112200218C3000F028FC2046BDE86B
:10712C001040FFF70BBF10B5002304460160C0F8F8
:10713C0084308830FFF75EFA204610BD73B500230B
:10714C004FF47A72C0E901320E4A03610260436166
:10715C000446AC200191FCF7A8FF051E05F10C06B6
:10716C0008D00123C5E90133074B01992B60304648
:10717C00FFF7D9FF2046C4E90565FFF7DFFE02B033
:10718C0070BD00BF7C870B0060870B0010B54FF003
:10719C00FF310446FFF7D2FF204610BD10B5044660
:1071AC000068002801DBFEF77BFF204610BD0C3089
:1071BC00FFF7F4BF024B1A68024B1A60704700BF0E
:1071CC007CE50320FCE6032070474174704708B54A
:1071DC00007CFEF7FDFF20EAE07008BD08B5007CDE
:1071EC00FEF7CEFF20EAE07008BD08B5007CFEF784
:1071FC00D7FF40EAE07008BD08B5007CFEF7C8FF79
:10720C0040EAE07008BD007CFEF7D2BF37B5457C84
:10721C0004462DB1207C03B0BDE83040FEF7A8BF7A
:10722C00007C0191FEF7D4FF00280199F2DC28467E
:10723C0003B030BD10B514210446FCF73CFF2046CA
:10724C0010BD000010B54FF47A7304460846114681
:10725C000022C4E90123044B2360012320746374CE
:10726C00FEF7BEFF204610BDE4870B00417470474B
:10727C007047704708B50021007CFEF7D9FF40EA43
:10728C00E07008BD08B50121007CFEF7D1FF40EA93
:10729C00E07008BD08B5007CFEF7C2FF20EAE07084
:1072AC0008BD08B5007CFEF7B3FF20EAE07008BD0E
:1072BC0013B50446007C0191FEF7B2FF002801993A
:1072CC0001DC607C20B1207CFEF7BAFF20EAE07084
:1072DC0002B010BD007CFEF7BBBF10B514210446F4
:1072EC00FCF7E9FE204610BD10B54FF47A73044646
:1072FC0008460021C4E90113044B236001232074C8
:10730C0063741146FEF774FF204610BD14880B0001
:10731C00007C0022FEF774BF10B514220446002135
:10732C0000F024FB204610BD10B50F4C88B003A80C
:10733C00FFF7F2FF2178BFF35B8F11F001010FD142
:10734C0020460191FCF7C6FE019948B103AA0748F3
:10735C00FFF7CAFF2046FCF7C2FE054800F0F2FA20
:10736C00024808B010BD00BF00E7032004E703206B
:10737C007D720B00002240681146FEF7D5BF00223B
:10738C0040681146FEF7F0BF002240681146FEF738
:10739C00FBBF40680022FEF7EFBF4068002281F07F
:1073AC000101FEF7D9BF002340681A461946FEF7C3
:1073BC00CBBF002340681A461946FEF7BDBF00221A
:1073CC0040681146FEF7A0BF406800220221FEF77C
:1073DC00A3BF002340681A46FEF78EBF024B04225F
:1073EC005A60024A1A60704718E7032044880B0061
:1073FC00014B1860704700BF80E5032008B50B4BAC
:10740C0043B1FFF791FF03681B699847002801DD22
:10741C00AFF30080064B43B100F05CF903681B69C5
:10742C009847002801DDAFF3008008BD0000000084
:10743C000000000008B5FFF7E1FFFEF779FD014BF6
:10744C00186008BD28E703200548064A064908B518
:10745C00121A00F07DFA054B054A1A6008BD00BFF0
:10746C0000F4032004F40320948A0B0000F403209E
:10747C001E1C279A07B5002300931A466FF077015C
:10748C00FEF720FF03B05DF804FB000007B543884E
:10749C000A2B08D0502B0BD1094B1B684BB103B0F6
:1074AC005DF804EB1847FFF7E5FF03B05DF804FB4C
:1074BC00002300931A466FF07701FEF703FFF4E701
:1074CC0024E7032010B512480021FEF7A5FF114B4D
:1074DC001A68114B9A42114B0CBF012200221A70F0
:1074EC0001D0FFF7B1FFFEF713FD044600F046FA9A
:1074FC000B4B13B12046AFF3008000210848FEF778
:10750C00F3FEBDE8104007480021FEF7D1BE00BFD6
:10751C00FD730B0000F403201E1C279A20E70320A8
:10752C000000000099740B00232813B502D9002029
:10753C0002B010BDA0F10B03022B1AD8174C217806
:10754C00BFF35B8F11F001010BD120460191FCF7C9
:10755C00C1FD019928B11248FFF7FAF92046FCF752
:10756C00BEFD0F4B1878FEF7DBFD0028DFD10120A4
:10757C00DEE7012809D800F06DF80021007CFEF749
:10758C0047FD80F00100C0B2D2E709380128EED8DF
:10759C0000F0A0F8007CFEF713FEF2E7B8E603203B
:1075AC00BCE60320232838B504460D460AD8FF292B
:1075BC0008D0FFF7B9FF28B129462046BDE838406E
:1075CC00FEF7BEBC38BD38B504460D46FEF7C0FC10
:1075DC00FF2810D0062804D84D2323FA00F0C30747
:1075EC0009D42046FFF7A0FF28B129462046BDE864
:1075FC003840FEF7B5BC38BD10B50446FEF7A8FC04
:10760C00031FDBB2012B08D92046FFF78DFF20B1F9
:10761C002046BDE81040FEF7ABBC002010BD704703
:10762C0038B50A4B03600123044643610849202006
:10763C0000F074F8202560600549A560284600F02C
:10764C006DF8C4E90305204638BD00BF18000100E1
:10765C0078880B0030B50E4D2978BFF35B8F11F095
:10766C00010487B011D12846FCF734FD68B1684697
:10767C00FFF7D6FF6A4621460648FEF74BFF284621
:10768C00FCF72DFD044800F05DF9024807B030BD51
:10769C002CE7032030E703202B760B00704700000B
:1076AC0038B5044614252A46002100F05FF92580E0
:1076BC004025074925812846258200F02FF80449EA
:1076CC006060284600F02AF8E060204638BD00BF14
:1076DC0078880B0030B50E4D2978BFF35B8F11F015
:1076EC00010487B011D12846FCF7F4FC68B101A85D
:1076FC00FFF7D6FF01AA21460648FFF7A3FD28464F
:10770C00FCF7EDFC044800F01DF9024807B030BD51
:10771C0044E7032048E70320A9760B00FCF7C7BC1D
:10772C00014900F0F9B800BF94880B007FB5002424
:10773C001023CDE90234036815469E6912686B4626
:10774C00CDE90044B0479DF8043003F00603062B46
:10775C0003BF009B2B600120204604B070BD009835
:10776C00904214BF012006207047000010B5034B57
:10777C000360044600F0CDF8204610BDD4880B0001
:10778C0010B50446FFF7F2FF20460821FCF793FCE6
:10779C00204610BD2DE9F0411F46DDE90834DDF827
:1077AC00188098450646154607D1079900F0B4F89D
:1077BC0018B165710020BDE8F0813946304600F003
:1077CC00ABF80028F6D00123C4F800802571A37112
:1077DC00F0E738B515461C4600F09EF820B108239A
:1077EC00E36006232560237138BD73B505460C464E
:1077FC0001921E4600F090F850B9032E08D8236869
:10780C00019A5B692946204602B0BDE870401847D2
:10781C0002B070BD10B5034B03600446FFF7A6FF22
:10782C00204610BD34890B0010B50446FFF7F2FF5B
:10783C0020460C21FCF73FFC204610BDF7B5089FF5
:10784C00974205460E4614460AD0A8680268089767
:10785C00156A31462246AC4603B0BDE8F04060479D
:10786C001946019300F058F8019B0028EDD0062032
:10787C0003B0F0BD2DE9F14F0D461946DDE90A4B79
:10788C00DDE90CA681461746984600F045F890B104
:10789C00002D3460377109DB61198A450CBF062154
:1078AC000121B171002001B0BDE8F08F0235F9D192
:1078BC000123B371F6E7544506D15946484600F00A
:1078CC002BF808B17771EDE7D9F808000368CDE91A
:1078DC000CA6CDE90A4BDC693A4643462946A44638
:1078EC0001B0BDE8F04F60472DE9F04107460C466A
:1078FC0015461E46FFF76DFF48B9B86803689F69C7
:10790C002A4633462146BC46BDE8F0416047BDE8F7
:10791C00F081704700207047814208B50ED0406856
:10792C0003782A2B0CD049680B782A2B08BF01311D
:10793C00FCF76EFBB0FA80F0400908BD0120FCE7B3
:10794C000020FAE7002301461A46184600F044B816
:10795C000A44914200F1FF3300D1704710B511F881
:10796C00014B03F8014F9142F9D110BD024403467B
:10797C00934200D1704703F8011BF9E738B5104B5F
:10798C001D68AB6B0446B3B91820FEF715FD024613
:10799C00A86320B90B4B0C484221FEF735FD0B496F
:1079AC000B4BC0E900130B4B83600B23838100212D
:1079BC000120C2E90401AB6B00221C615A6138BD85
:1079CC0080E503206D890B0084890B000E33CDAB51
:1079DC0034126DE6ECDE05002DE9F843DFF8B880D3
:1079EC000646D8F800001F460D46914600F056F8A2
:1079FC00254B1C6834B9254C1C60254B13B11B68F6
:107A0C00C4F8883063681F2B07DDD8F8000000F03D
:107A1C0047F84FF0FF30BDE8F8834EB3D4F8880038
:107A2C0088B91C4B23B9D8F8000000F038F8F0E7FF
:107A3C004FF48470FEF7C0FC0028F4D00023C0E99A
:107A4C004033C4F88800636840F8239001229A40C0
:107A5C0000EB8301D0F800311343C0F80031022E43
:107A6C00C1F8807002BFD0F804311343C0F8043160
:107A7C006368D8F800005A1C0233626044F8235043
:107A8C0000F00EF80020C6E7E8E703205CE70320CF
:107A9C0000000000C5630B00E4E50320704770474D
:107AAC007047000000044D5154540400064D5149D8
:107ABC007364700341400B007D400B00A5400B002C
:107ACC00A9400B000000000043616C6C206F6E201D
:107ADC0070757265207669727475616C002573001F
:107AEC00310030004C616231320077656C636F6D30
:107AFC0065212100627574746F6E2041207072656F
:107B0C007373656400627574746F6E2042207072BA
:107B1C00657373656400627574746F6E20432070B6
:107B2C00726573736564006C61622E74686577634B
:107B3C006C2E636F6D0000000000003E5B4F5B3EDF
:107B4C003E6B4F6B3E1C3E7C3E1C183C7E3C181C16
:107B5C00577D571C1C5E7F5E1C00183C1800FFE70D
:107B6C00C3E7FF0018241800FFE7DBE7FF30483AB3
:107B7C00060E2629792926407F050507407F052515
:107B8C003F5A3CE73C5A7F3E1C1C08081C1C3E7F9D
:107B9C0014227F22145F5F005F5F06097F017F0064
:107BAC006689956A606060606094A2FFA294080484
:107BBC007E040810207E201008082A1C08081C2AA5
:107BCC0008081E101010100C1E0C1E0C30383E38FD
:107BDC0030060E3E0E06000000000000005F0000A4
:107BEC000007000700147F147F14242A7F2A122315
:107BFC001308646236495620500008070300001C25
:107C0C002241000041221C002A1C7F1C2A08083E2D
:107C1C000808008070300008080808080000606040
:107C2C000020100804023E5149453E00427F4000AE
:107C3C0072494949462141494D331814127F102786
:107C4C00454545393C4A49493141211109073649D5
:107C5C00494936464949291E0000140000004034A9
:107C6C0000000008142241141414141400412214AE
:107C7C000802015909063E415D594E7C1211127CD5
:107C8C007F494949363E414141227F4141413E7F36
:107C9C00494949417F090909013E414151737F0816
:107CAC0008087F00417F41002040413F017F0814BC
:107CBC0022417F404040407F021C027F7F0408101D
:107CCC007F3E4141413E7F090909063E4151215EFB
:107CDC007F09192946264949493203017F01033F8F
:107CEC004040403F1F2040201F3F4038403F63141E
:107CFC0008146303047804036159494D43007F4120
:107D0C0041410204081020004141417F040201025C
:107D1C000440404040400003070800205454784081
:107D2C007F284444383844444428384444287F3815
:107D3C005454541800087E090218A4A49C787F0897
:107D4C0004047800447D40002040403D007F102812
:107D5C00440000417F40007C047804787C080404D3
:107D6C00783844444438FC1824241818242418FC6B
:107D7C007C08040408485454542404043F44243C10
:107D8C004040207C1C2040201C3C4030403C44287F
:107D9C001028444C9090907C4464544C4400083619
:107DAC004100000077000000413608000201020487
:107DBC00023C2623263C1EA1A161123A4040207AA7
:107DCC0038545455592155557941225454784221EF
:107DDC005554784020545579400C1E527212395526
:107DEC005555593954545459395554545800004523
:107DFC007C410002457D420001457C407D12111200
:107E0C007DF0282528F07C545545002054547C5492
:107E1C007C0A097F4932494949323A4444443A324E
:107E2C004A4848303A4141217A3A42402078009DF4
:107E3C00A0A07D3D4242423D3D4040403D3C24FFA0
:107E4C002424487E4943662B2FFC2F2BFF0929F64F
:107E5C0020C0887E090320545479410000447D41A0
:107E6C003048484A32384040227A007A0A0A727DF9
:107E7C000D19317D2629292F282629292926304814
:107E8C004D4020380808080808080808382F10C882
:107E9C00ACBA2F102834FA00007B000008142A1406
:107EAC002222142A14085500550055AA55AA55AA81
:107EBC00FF55FF55FF000000FF00101010FF0014CD
:107ECC001414FF001010FF00FF1010F010F0141429
:107EDC0014FC001414F700FF0000FF00FF1414F44E
:107EEC0004FC141417101F10101F101F1414141F4F
:107EFC0000101010F0000000001F101010101F10C8
:107F0C00101010F010000000FF10101010101010C6
:107F1C001010FF10000000FF140000FF00FF000015
:107F2C001F10170000FC04F414141710171414F489
:107F3C0004F40000FF00F714141414141414F700C4
:107F4C00F7141414171410101F101F141414F41415
:107F5C001010F010F000001F101F0000001F140084
:107F6C000000FC140000F010F01010FF10FF1414AF
:107F7C0014FF141010101F00000000F010FFFFFF82
:107F8C00FFFFF0F0F0F0F0FFFFFF0000000000FF3B
:107F9C00FF0F0F0F0F0F3844443844FC4A4A4A3441
:107FAC007E02020606027E027E0263554941633858
:107FBC0044443C04407E201E2006027E020299A509
:107FCC00E7A5991C2A492A1C4C7201724C304A4D67
:107FDC004D303048784830BC625A463D3E4949499C
:107FEC00007E0101017E2A2A2A2A2A44445F444445
:107FFC0040514A444040444A51400000FF0103E0D4
:10800C0080FF000008086B6B083612362436060F0A
:10801C00090F06000018180000001010003040FF77
:10802C000101001F01011E00191D1712003C3C3CF0
:10803C003C000000000000000000000000000000F8
:10804C000000000000000000DD490B001D680B0063
:10805C00C9400B00E3430B00E5430B0017440B0036
:10806C00F3430B0005440B0025430B00E3430B00CB
:10807C000F460B000D460B002F440B006D440B00FC
:10808C00A7440B00ED440B0009450B008D450B007C
:10809C0064656661756C7420004D5342004C53420C
:1080AC00003C53504953657474696E677320646562
:1080BC006661756C743E003C535049536574746929
:1080CC006E67732025732575202573204D4F44450D
:1080DC0025753E000000000000000000FD4A0B006A
:1080EC00EB4A0B00ED4A0B00000000000001800081
:1080FC0000000000000000000380000000000000F1
:10810C0000000007C000000000000000000007C0D5
:10811C000000000000000000000FC0000000000084
:10812C00000000001FE00000000000000000001F25
:10813C00E00000000000000000003FE00000000034
:10814C0000000000003FF0000000000000000000F4
:10815C007FF0000000000000001FF87FF00000001E
:10816C00000000003FFE7FF0000000000000003F18
:10817C00FF7FF0000000000000001FFFFBE000008C
:10818C0000000000000FFFF9FFC00000000000001D
:10819C000FFFF9FFF800000000000007FFF1FFFFE0
:1081AC0000000000000003FC73FFFF8000000000D3
:1081BC000001FE3FFFFF80000000000000FF1E0FCB
:1081CC00FF000000000000007FFE1FFC000000000C
:1081DC000000003FFFFFF8000000000000000FDF70
:1081EC00FFE0000000000000001F19FFC0000000AD
:1081FC00000000003F3CFF00000000000000007E7B
:10820C007CF800000000000000007FFE7C000000F5
:10821C000000000000FFFFFC000000000000000058
:10822C00FFFFFE0000000000000000FFFFFE00004A
:10823C00000000000001FFEFFE0000000000000045
:10824C0001FFCFFE0000000000000003FF07FE004E
:10825C0000000000000003FC07FE0000000000000E
:10826C000003F003FE00000000000000018000FE8F
:10827C00000000000000000000007E000000000074
:10828C0000000000003E00000000000000000000A4
:10829C000C000000000000078000FC000003C00080
:1082AC000000078001FC000003C0000000078001F3
:1082BC00FC000003C0000000078001E00000001E6D
:1082CC00000000078001E00000001E007FE3F79F24
:1082DC00F9FDE7787BDFC0FFF7FFBFFDFDFF787B83
:1082EC00DFC0FFF7FFBFFDFDFF787BDFC0F0F78736
:1082FC00BC3DE1FF787BDE00F0F787BC3DE1F07818
:10830C007BDE0000F787803DE1E0787BDE007FF7C5
:10831C00879FFDE1E0787BDE00FFF787BFFDE1E0A2
:10832C00787BDE00F0F787BC3DE1E0787BDE00F087
:10833C00F787BC3DE1E0787BDE00F0F787BC3DE1E0
:10834C00E0787BDE00FFF7FFBFFDE1E07FFBDFC0E5
:10835C00FFF7FFBFFDE1E07FFBDFC07CF3F39F3D48
:10836C00E1E03E7BCFC000000000000000000000F8
:10837C0000FFFFFFFFFFFFFFFFFFFFC0FFFFFFFF3F
:10838C00FD68DB111A31C0FFFFFFFFFD2B5AFB6AA2
:10839C00EFC0FFFFFFFFFD4B5B3B1A33C0FFFFFF3E
:1083AC00FFFD6B5BDB6AFDC000006000000000009D
:1083BC00000000000000000000E0000000000000D1
:1083CC000000000000000001E000000000000000C0
:1083DC0000000000000001F00000000000000000A0
:1083EC00000000000003F00000000000000000008E
:1083FC000000000007F0000000000000000000007A
:10840C0000000007F8000000000000000000000061
:10841C0000000FF800000003C0007E000001E00027
:10842C007F0FF800000003C000FE000001E000FF19
:10843C00EFF800000003C000FE000001E000FFFFA9
:10844C00F800000003C000F00000000F007FFE7F6A
:10845C00C0000003C000F00000000F003FFE7FF8DA
:10846C003FF1FBCFFCFEF3BC3DEFE01FFE7FFF7F37
:10847C00FBFFDFFEFEFFBC3DEFE01FC6FFFF7FFBF7
:10848C00FFDFFEFEFFBC3DEFE00FE3C7FE787BC3D2
:10849C00DE1EF0FFBC3DEF0007FF87FC787BC3DEE0
:1084AC001EF0F83C3DEF0001FFFFF0007BC3C01E47
:1084BC00F0F03C3DEF0001F37FE03FFBC3CFFEF05B
:1084CC00F03C3DEF0003E33F807FFBC3DFFEF0F0A9
:1084DC003C3DEF0007E73C00787BC3DE1EF0F03C30
:1084EC003DEF0007FFBE00787BC3DE1EF0F03C3D85
:1084FC00EF0007FFFE00787BC3DE1EF0F03C3DEF83
:10850C00000FFFFE007FFBFFDFFEF0F03FFDEFE012
:10851C000FFFFF007FFBFFDFFEF0F03FFDEFE00FF2
:10852C00F9FF003E79F9CF9EF0F01F3DE7E01FF117
:10853C00FF0000000000000000000000001F80FF92
:10854C00007FFFFFFFFFFFFFFFFFFFE01C007F002E
:10855C007FFFFFFFFEB46D888D18E000001F007FC9
:10856C00FFFFFFFE95AD7DB577E000000F007FFFAC
:10857C00FFFFFEA5AD9D8D19E0000006007FFFFFFB
:10858C00FFFEB5ADEDB57EE0000000000000000080
:10859C00514B0B00694B0B00DD490B001D680B00A8
:1085AC007D4B0B00E3430B00E5430B0017440B0022
:1085BC00F3430B0005440B0025430B00E3430B0076
:1085CC000F460B001B4D0B00C3520B0075520B00DA
:1085DC00A7440B00ED440B0009450B008D450B0027
:1085EC000080C0E0F0F8FCFE000103070F1F3F7F86
:1085FC00AED580A8D300408D2000A1C8DB40A4A636
:10860C002EAFDA02818FDA1281DA02812200FF2189
:10861C000000000000000000000000007D5D0B0069
:10862C009D5D0B00DD490B001D680B007D4B0B00A5
:10863C00E3430B00E5430B0017440B00F3430B0023
:10864C0005440B0025430B00E3430B000F460B00C6
:10865C001B4D0B00C3520B0075520B00A7440B00B3
:10866C00ED440B0009450B008D450B00000000008C
:10867C00000000000000000000000000AB640B00D4
:10868C00A1640B0097640B008D640B0081640B00DC
:10869C0075640B00F9660B0001670B0069640B0035
:1086AC0061640B0057640B004D640B0031670B00C9
:1086BC000000000000000000C9640B0013650B00F3
:1086CC00EB640B00CB640B00F3640B00FB640B003E
:1086DC0003650B000B650B000000000000000000A0
:1086EC009D650B008D650B008F650B006170700034
:1086FC000000000000000000B9660B00C3660B0010
:10870C00CD660B00D7660B00E1660B00ED660B0027
:10871C00F9660B0001670B0009670B0015670B006E
:10872C001D670B0027670B0031670B000008101842
:10873C0020283038776972696E670072656376201D
:10874C006572726F72203D202564000000000000ED
:10875C0000000000656C0B00896C0B00BB710B00FA
:10876C00976C0B00696C0B0000000000000000000F
:10877C00156D0B00496D0B00E16B0B00FB6B0B00D7
:10878C0051700B00256C0B00C76E0B00596C0B0065
:10879C00596F0B00996D0B00F56E0B0005710B00FA
:1087AC00956E0B005B6C0B000D6C0B009D6C0B0045
:1087BC00796D0B0025592D256D2D25645425483ACE
:1087CC00254D3A2553257A0061736374696D6500F4
:1087DC000000000000000000D5710B0041720B007E
:1087EC0019720B001D680B00E9710B0005720B0070
:1087FC00F7710B0013720B00D7710B00DB710B00C0
:10880C0000000000000000007F720B00E7720B00FC
:10881C00BD720B001D680B00AF720B0081720B0058
:10882C0091720B00E1720B00A1720B0079720B00BC
:10883C000000000000000000DF730B00D5730B007C
:10884C00CB730B0081730B00BF730B00B3730B0066
:10885C00F9660B0001670B00A7730B009F730B00ED
:10886C0095730B008B730B0031670B000053743145
:10887C00395F53705F6D616B655F736861726564BE
:10888C005F74616700000000D4880B0079880B00CE
:10889C0034890B00A8880B0058890B004E31305FCF
:1088AC005F637878616269763131375F5F636C61E1
:1088BC0073735F747970655F696E666F4500000055
:1088CC00000000009C880B0079770B008D770B0063
:1088DC0021790B0021790B00F7770B0039770B000E
:1088EC00DF770B00A1770B006B770B0034890B0043
:1088FC0004890B009C880B004E31305F5F637878E5
:10890C00616269763132305F5F73695F636C61738A
:10891C00735F747970655F696E666F450000000067
:10892C0000000000F8880B0021780B0035780B0054
:10893C0021790B0021790B00F7770B0039770B00AD
:10894C00F5780B0081780B0049780B00D4880B006C
:10895C0060890B00537439747970655F696E666F4A
:10896C00005245454E54206D616C6C6F63207375DD
:10897C0063636565646564002F746D702F6A656E42
:10898C006B696E732D4743432D31302D70697065C3
:10899C006C696E652D34385F32303230313132349F
:1089AC005F313630363138303633392F7372632FAE
:1089BC006E65776C69622F6E65776C69622F6C6976
:1089CC0062632F7374646C69622F72616E642E63C0
:1089DC0000000000E9420B003D640B00B5640B0085
:1089EC00A9660B0009680B0045690B00BD6B0B00F9
:0889FC00C1710B00E9730B00CF
:108A0400040000001400000003000000474E55005D
:108A1400EF9190C1569EC8BA11887434A29F989D54
:048A2400336526850B
:108A2800D4870B0084E5032000000000000000004C
:108A3800000000000000000000000000000000002E
:108A4800000000000000000000000000000000001E
:108A5800000000000000000000000000000000000E
:108A680000000000000000000000000000000000FE
:108A780000000000000000000000000000000000EE
:0C8A88000000000000000000ECE70320EC
:048A940000000000DE
:108A9E0000000102030405060708090A0B0C0D0E5F
:108AAE000F101112131415161718191A1B1C1D1E50
:048ABE001F2028004D
:048AC200785634129C
:04000003B000401CED
:00000001FF
